:020000041102E7
:1000000003B40148019001BDADAE000003B4014846
:10001000019001BD456B010003B40148019001BD91
:100020000189000003B40148019001BDC53F0000F3
:1000300003B40148019001BDE94C010003B401483B
:10004000019001BDC95C010003B40148019001BDEC
:10005000CD4C010003B40148019001BD7B8DFF1F11
:1000600003B40148019001BD154D010003B40148DE
:10007000019001BD1D4B010003B40148019001BD79
:10008000F54E010003B40148019001BD434D01004C
:1000900003B40148019001BD2526000003B40148C6
:1000A000019001BD8B52010003B40148019001BDD4
:1000B000B352010003B40148019001BD6189000001
:1000C00003B40148019001BD0D52010003B4014881
:1000D000019001BDC94A010003B40148019001BD6E
:1000E000014C010003B40148019001BDF94C01002D
:1000F00003B40148019001BD5155FF1F03B40148ED
:10010000019001BD691F000003B40148019001BDC9
:100110005D17000003B40148019001BD3D4B010093
:1001200003B40148019001BD5952010003B40148D4
:10013000019001BD5125000003B40148019001BDAB
:10014000594F010003B40148019001BD8D12000018
:1001500003B40148019001BD4D1F000003B40148E4
:10016000019001BD5522000003B40148019001BD7A
:10017000DD52010003B40148019001BD1D4D010095
:1001800003B40148019001BD810E000003B4014891
:10019000019001BD017F000003B40148019001BD41
:1001A000E117000003B40148019001BD7918000077
:1001B00003B40148019001BDD949010003B40148CD
:1001C000019001BDE928000003B40148019001BD80
:1001D0005549010003B40148019001BD455101009A
:1001E00003B40148019001BD0D69FF1F03B401482C
:1001F000019001BD6D8BFF1F03B40148019001BD4B
:100200005935FF1F03B40148019001BD1DBC00001A
:1002100003B40148019001BD6DBC000003B4014866
:10022000019001BDC521000003B40148019001BD4A
:10023000291C000003B40148019001BD851F000086
:1002400003B40148019001BD090E000003B4014848
:10025000019001BDA946010003B40148019001BD10
:100260001147010003B40148019001BDFF28FF1FA1
:1002700003B40148019001BDD928FF1F03B4014810
:10028000019001BD2124000003B40148019001BD8B
:10029000E548000003B40148019001BD2951010067
:1002A00003B40148019001BD492CFF1F03B401486C
:1002B000019001BD712CFF1F03B40148019001BDE5
:1002C00051470100F8B5C849C64A002005464A60B2
:1002D0008300401CD550FF28FADD4868C34A014618
:1002E00080318A606E22C262C14A1278002A01D02F
:1002F0007F22C2620A22BF4B02651A788263BE4A1D
:10030000C2611A781024022A06D01A78032A08D06B
:100310001A78042A05D005E0B84AC26104220262B4
:1003200000E00462B64A42611922920182613722DA
:10033000CA6036272D26C7630822466402644F60D0
:1003400032270F603B27CF634527CF640D463927FF
:100350004035C4C532270F6502270F66422708358E
:10036000C4C51E274F66CE668A6605264E6742269E
:100370000E675A260E614A613C228A61AF22D20082
:100380000260A04A02631A78022A06D01A78032A69
:1003900005D01A78042A04D005E0152202E00E22C6
:1003A00000E00C224260FF222D328260C260FF22F8
:1003B000F5320261944A82647D22D200934ECA676C
:1003C000C6644262924A82627322C2650622426514
:1003D0008265C21D0826F9320227166047664B2740
:1003E000FF0087660927C7668A4F076746670025AB
:1003F0008567BD10884F854EC5673E601E78022E0A
:1004000006D01E78032E07D01B78042B08D00AE0F4
:100410001A23CB61212301E01323CC610B6202E09C
:100420000E230C62CB61784B8B627D23DB008B67E4
:1004300064234B620523CB6202230B63C8234B6307
:1004400000238B63382151607449116474499161B0
:100450004B21C900D161734911627D2109015162AB
:10046000D3661E21136791666A49916515665564C6
:100470005567D1656149FF30963191676A49D16707
:100480006A4A8130026082604160FF21F531C160BB
:10049000016168486649534A81606749803A116141
:1004A0006449664A80318A62654ACA62654A8261E5
:1004B000654AC262654A02636548C8615D4965482C
:1004C000403188616549644888605A486449803889
:1004D000416064494163FFF793FD0120FFF796FDFA
:1004E000F8BDF3B50746604881B0C1695F4A114065
:1004F000FF310931C161002613E000252C4611208F
:10050000FFF78AFD5848406A8007800F61008840E5
:100510002843641CE4B20546102CF0D301C7761CB6
:10052000F6B202988642E8D3FEBD10B52E4C607834
:1005300000280AD104214E48FFF7D3FF4C4804217C
:100540001030FFF7CEFF0120607010BDF0B5002421
:100550008BB00D460646102902D901200BB0F0BD24
:10056000FFF7E3FF424900200A5C401C1419C0B2A7
:100570001028F9D3002C03D0102D03D90B20EDE760
:100580000E20EBE73B483A4C0023006802A91034E8
:10059000E25CC75C7A40CA545B1CDBB2102BF7D319
:1005A00006AA3348FFF73EFD102D00D910252A4634
:1005B00006A93046FFF73CFDFFF740FD21684018D3
:1005C0002060FFF73BFD616840186060FFF736FD73
:1005D000A1684018A060FFF731FDE1684018E060B5
:1005E0000020BBE70004FF1F4CD1FF1F88F8FF1F4E
:1005F00074CCFF1F4A0AFF1F220B000046050000B3
:1006000080C3C9019A02000050C30000F811000025
:100610006A180000204E0000F009FF1F0040001182
:1006200068100000C409000040420F0010270000BD
:10063000E183FF1F0001FF1F8D31FF1FA59DFF1FDD
:1006400085A0FF1FF52DFF1F892FFF1F112EFF1FF4
:1006500071B8FF1F5929FF1F1135FF1F0002FF1F2F
:100660004181FF1F3582FF1F40F0004000FEFEFF6A
:10067000E0F2FF1F6CD1FF1F0A7802708A78427087
:100680004A88120A82700979C170042070470A787A
:1006900002700988090A41700220704710B50022D3
:1006A0000EE093005B189C7804705C88521C240A4E
:1006B00044701C7984709B88D2B21B0AC370001DE1
:1006C0000B789342EDD81806800D10BDF8B50D4695
:1006D00006464978012031700024761C16E06978BE
:1006E000012917D01221614349198A7832704A884A
:1006F000871C120A7270B61C10223046091DFFF7C3
:1007000097FC1037B8B21036641CE4B22978A142C5
:10071000E5D8F8BDA10049198A7832704A88871C4B
:10072000120A7270B61C02223046091DFFF780FCC7
:10073000BF1CB8B2B61CE7E710B50C4609780170CB
:100740002188090A41706288211D801CFFF770FC16
:100750006088801C80B210BD10B50C46097801700D
:100760002188090A4170A17881706188090AC170E5
:10077000A288A11D001DFFF75BFCA088001D80B2B0
:1007800010BD10B50C460A88891CFFF751FC208863
:1007900010BD10B50B788A7802705343DCB2224644
:1007A000401C091DFFF744FC601C10BD10B50B7800
:1007B0008A7802705343DCB22246401C091DFFF7C1
:1007C00037FC601C10BD10B50C460A88891CFFF769
:1007D0002FFC208810BD10B50C460A88891CFFF735
:1007E00027FC208810BD7FB515460446022901D09C
:1007F000102903D1022B04D0102B02D0002004B00A
:1008000070BD994202D10A46294607E0102969467F
:1008100007D000F00DF8102269462846FFF714FCB7
:10082000EDE7104600F004F8102269462046F5E78F
:1008300070B50C4605000CD0002C0AD010220649D9
:100840002046FFF7F5FB2878207368786073012055
:1008500070BD002070BD00005C66021110B50B4633
:100860000122024901F0BAFF10BD00007906021111
:1008700070B5064608880C46172812D30B4603228B
:100880000949304601F0AAFF050008D10749208830
:100890000988884200D20146304600F0B7F9284660
:1008A00070BD022070BD00008F0602117AD1FF1FBB
:1008B00010B500231922194601F090FF10BD000069
:1008C00010B50A78002A05D00B460722024901F02C
:1008D00085FF10BD022010BD9D06021110B54A789B
:1008E000012A01D0022A08D10A78002A05D00B4635
:1008F0000522034901F072FF10BD022010BD000067
:10090000CD06021101494000085A704778D1FF1FF7
:1009100010B50B461D22024901F060FF10BD00001A
:1009200039070211014917200880704778D1FF1F4D
:100930000098022B01D004207047117852781202DF
:1009400089180180002070470098012B01D00420F5
:100950007047117801700020704770B5049C1E46E6
:100960001546062B1BD36978287809024018208089
:10097000E978A87809024018608002222271291DB6
:10098000601DFFF755FBB61FB2B22281F02A06D8D0
:100990002046A91D0A30FFF74BFB002070BD042044
:1009A00070BD0098042B01D0042070475378117853
:1009B0001B02C91801809178D278120289184180EF
:1009C00000207047F8B584890D460646002C26D0D5
:1009D000B2681778380620D50C2C20D90C3CA4B26C
:1009E0001019009001217088234601F04BFD00286A
:1009F00011D0022028707806C00F6870B806800EEB
:100A0000A870641E2004000CA88001D0B068401CAF
:100A1000A8600020F8BD0120ECE70020EAE70120F3
:100A2000F8BD10B502981146042B14D34C780A78FF
:100A3000240212190280CC788A782402121942808A
:100A40001B1F9AB28280F22A05D8801D091DFFF76C
:100A5000EFFA002010BD042010BD0098042B01D037
:100A600004207047537811781B02C91801809178CF
:100A7000D2781202891841800020704710B5029880
:100A80001146062B03D0142B03D0042010BD0222E4
:100A900000E0102202714B780A781B02D218028003
:100AA000CB788A781B02D21842800279401D091D3A
:100AB000FFF7BEFA002010BD30B5039CD80718D14F
:100AC000D805010E022914D30B488088814210D822
:100AD000F6200155002008E0557813782D025B19A7
:100AE0004500401C6353C0B2921C8842F4D30020DE
:100AF00030BD042030BD000072D1FF1F0098022BD2
:100B000001D00420704711785278120289180180B0
:100B10000020704770B5144602460498022B18D383
:100B2000667825783602AD1905800546E0352A76C7
:100B30006976002A0BD0E8219B1E9AB242808A4235
:100B400007D8A11C001DFFF773FA002070BDF42127
:100B5000F2E7042070BD000010B50B4617220249D1
:100B600001F03CFE10BD00005907021110B50B4604
:100B70000D22024901F032FE10BD00008307021170
:100B800010B50A78002A05D00B461122024901F05F
:100B900025FE10BD022010BD9307021110B50A7882
:100BA000002A05D00B460922024901F017FE10BDAC
:100BB000022010BDAD07021110B50B460F220249ED
:100BC00001F00CFE10BD0000C707021110B50B4666
:100BD0000B22024901F002FE10BD0000D7070211EE
:100BE000F72800D9F720084A01461080401EC31795
:100BF0009B0F18188003000C5080491EC80F401826
:100C0000C003000C9080704772D1FF1F044A128805
:100C1000914203D8024A4000921D115270470000D1
:100C200072D1FF1F10B500231322194601F0D6FD23
:100C300010BD0000FFB599B000261F46079607AA11
:100C4000089600F08FF805460A287AD20446062056
:100C5000444320462030C0B26A460E21FFF7FAF91D
:100C6000002802D168468089C6B21B980990082FD7
:100C700014D000201790082F12D020462130C0B287
:100C800018901C2200216846FFF7EAF96A461C21E9
:100C90001898FFF7DFF9002805D010E00120E9E7F8
:100CA00020462230EBE76846807EC01F092806D820
:100CB000F107C90F6A46179B099800F0ADFA142294
:100CC000002110A8FFF7CCF920462430C0B210AAAA
:100CD0001021FFF7BFF9002812D11022FF2110A820
:100CE000FFF7C4F900280BD12534E0B214AA04217F
:100CF000FFF7B0F9F107C90F10AA1B9800F0D2FC5A
:100D00007035E8B20BAA1021FFF7A4F9002811D121
:100D10000BA801F024FE00240BADA00040190188AF
:100D2000002903D082781B9800F068FF641CE4B2AD
:100D3000042CF2D3B00704D5094801781B9800F0C1
:100D40004BFF042F08D106491B98491C085C022858
:100D500002D11B9801F012FE00201DB0F0BD000072
:100D600014CFFF1FF0B50A2485B016460F460028A1
:100D700007D0012805D00A25022810D0032847D122
:100D80001FE0084601F0B8FD04460A2840D2002EB4
:100D90003ED0062239463046FFF74AF938E01E4F6A
:100DA000002400910E206043C0190622801D009986
:100DB000FFF74AF9002823D1641CE4B20A2CF1D3CE
:100DC0001CE000242046062148432330C0B26A4676
:100DD0001021FFF73FF900280CD11022FF216846AF
:100DE000FFF744F9002805D13946684600F0FEFBBC
:100DF000002805D0641CE4B20A2CE3D32C4607E09B
:100E00000A2C05D2002E03D03146204601F08CFD7D
:100E1000204605B0F0BD00000EEFFF1F70B50E4C70
:100E200000256071A571691EE18100F0D9FB0420E5
:100E3000E071102200210948FFF712F9074810223B
:100E400000211030FFF70CF9E5622572657207206A
:100E5000A072E57270BD000054CDFF1FB9EBFF1FFB
:100E6000FEB53B4D0C4608040CD56879FFF704F934
:100E7000050004D002F0AAFA2846FFF703F9012082
:100E8000C00360E0600403D5012080034840FEBD3C
:100E90002F48E1070126807900292AD029780029E6
:100EA00020D0052821D0297A68460170697A4170DE
:100EB000274906223031801CFFF7BAF8A97A684624
:100EC0000172E97A41726946687900F075FA002882
:100ED00008D00720A871696A002903D00968002991
:100EE00000D0884720467040FEBD03206946087048
:100EF000E4E7A1070DD5052809D1E889FFF7C8F86F
:100F0000AA8A002A03D002216879FFF7C7F80220D5
:100F100019E0600704D5002002F0B0FA042012E0C6
:100F2000200712D52879012802D002280AD107E02B
:100F30000096AB8B6A8B298BE88A00F00BF801E0F6
:100F400000F05AF908206040FEBD0020FEBD000000
:100F500054CDFF1FF8B5134C069EA579052D01D081
:100F60001420F8BD104F851FBD4219D2062917D392
:100F7000BD1DA94214D2FF27F537BA4210D20A2B61
:100F80000ED3AB420CD2E08221836283A38330462E
:100F900002F074FA04216079FFF786F80020F8BDAA
:100FA0001820F8BD54CDFF1F7A0C0000F7B50D4690
:100FB00080490098164642187F4F00247879B97905
:100FC0001300FFF777F8190E141BE92040455970FC
:100FD000777E888FE996A2A9B4BFC8E9E9E9E9D389
:100FE000E900102D76D11022314674486FE0102DA3
:100FF00070D1724810223146103068E0042D69D15A
:101000003068F862CEE0012D64D13B7832783A70D6
:10101000002B0AD0002A07D1022903D0062901D0CB
:10102000042901D100F082F9BCE0002A0AD001298C
:1010300005D0032903D0052901D0042902D10121BB
:10104000FFF73EF8AEE0022D44D13088B881A9E028
:101050001F2D3FD858481F2200214230FFF700F8CB
:1010600055482A4631464230FEF7E2FF524B7D702A
:1010700042332A46012112E01F2D7CD84F481F22FF
:1010800000211F38FEF7ECFF4C482A4631461F3836
:10109000FEF7CEFF494B2A461F3BBD7000217879F1
:1010A00000F066FB83E0012D65D13078042862D81A
:1010B000387277E0012D5ED1307803285BD87872E2
:1010C00070E0062D57D13C48062231463030FEF7FD
:1010D000AFFF67E04FE0012D4DD1307807284AD8A7
:1010E000B8725FE0012D46D13078032843D8F872FA
:1010F00058E0022D3FD13288BA82002A52D0052909
:1011000050D10221FEF7CAFF4CE0012D33D13078D7
:10111000012830D8F87045E03088022D2BD1062800
:1011200029D31921C901884225D8F8823AE03088AC
:10113000022D20D106281ED31921C90188421AD8B0
:1011400038832FE03088022D15D1FF21F5318842F8
:1011500011D2788326E03088022D0CD10A280AD3D8
:101160001921C901884206D8B8831BE03178012DC6
:1011700001D1012901D0182414E00821FEF7A6FFAF
:10118000002801D016240DE0002002F077F9042198
:101190007879FEF789FF05E00098272801D2022D13
:1011A00002D002242046FEBD318800F06BFA0446CE
:1011B000F8E70000FFFCFFFF54CDFF1FB9EBFF1F56
:1011C0001CB50B4CA179002901D011201CBD0028B1
:1011D00000D06062064907482C3103460191009017
:1011E000103B0022E179607900F05AF800201CBD24
:1011F00054CDFF1FC9EBFF1F10B5064881790529A3
:1012000001D0122010BDC1891322407900F070FA7C
:1012100010BD000054CDFF1FFFB5204D81B02878D0
:101220001E461746022823D0012821D0002F22D0A5
:10123000019803F0BDFF04001FD0606A002801D0B0
:10124000FEF74AFF1C213846FEF74CFF60620100A2
:1012500015D02878000714D5002E12D0887E009073
:101260000B4612330A8A019804F016FD014609E084
:10127000122005B0F0BD0220FBE71420F9E713208F
:10128000F7E700212079042210432071029A002AF6
:1012900002D00222104320710846EAE77FD1FF1FE7
:1012A000FFB581B01E460D4602240B9F0B00FEF7D2
:1012B00001FF0D1A0B1A1A0B1A1A1A1A1A1A1A08FF
:1012C0001A000AA0FEF714FF2946019800F0D8F88A
:1012D000040008D13A4630460A9900F08BF900F034
:1012E000EBF801F0BFF8204605B0F0BD4741505F74
:1012F000446576696365496E69743A204741505F79
:1013000050524F46494C455F43454E5452414C2044
:101310007C204741505F50524F46494C455F5045F5
:10132000524950484552414C200A000070B5104CBB
:101330002168002904D00978814203D0032070BDC0
:10134000122070BD0B4D02212878FEF7ADFE0A4831
:101350000026468004212878FEF7A6FE074806806E
:101360002168032048700020FEF7C8FE70BD000011
:10137000DCD1FF1F0DD2FF1FF0D1FF1F82D1FF1F55
:10138000272803D202494000085A70470148704795
:101390008AD1FF1FFFFF000010B5064C607003F0FC
:1013A00037FF6078FEF7B0FE0521607800F066FF39
:1013B00010BD00000CD2FF1F70B5284E05463068E6
:1013C0000C46002801D0112070BD25480178052069
:1013D000014216D023488068002805D000780028F4
:1013E00002D0C80706D101E0102070BD00F044F81B
:1013F000002808D02078032805D0022803D0002830
:1014000001D0122070BD0C20FEF784FE3060002851
:1014100020D00570002141700A222146801CFEF771
:1014200007FE02F0EDF8040002D001F0FDFA12E030
:101430000D48007803280ED11D20FFF7A1FF0B49AE
:101440000028088007D00B48094A04210078FEF7DD
:1014500067FE00E01324204670BD0000DCD1FF1FB2
:101460007FD1FF1FF0D1FF1F80D1FF1F82D1FF1F4F
:1014700060EA00000DD2FF1F10B503F0E7FE10BDBB
:1014800070B50C4605461C2200210948FEF7E8FD10
:10149000084805704470FEF749FE0549002803D04E
:1014A00000200870122070BD01220A7070BD00007B
:1014B00010F3FF1F7ED1FF1F70B50F4C0025A068F1
:1014C000002802D0FEF708FEA560E068002802D0E0
:1014D000FEF702FEE560094805210078084206D0C3
:1014E0000548103001F072FE01F0DCF970BD0020FB
:1014F00001F06CFE002070BDF0D1FF1F7FD1FF1FF7
:10150000FEB5344D0C46080419D56878FEF7B4FDD5
:101510000121C9034C40064600280ED001F076FD9B
:10152000002807D12878FF2804D03146FEF704FEB2
:10153000002802D03046FEF7A5FD2046FEBDE0079C
:10154000012700280AD0A868002804D04168002993
:1015500001D00020884720467840FEBDA00709D56D
:101560006868002804D04168002901D0012088471C
:1015700002202AE060072AD5174E308800281FD0A5
:10158000401E0004000C30801ED101F0BFFA00287C
:1015900009D0124807706868002804D04168002903
:1015A00001D00120884701F08BFA694600F0C4FEA3
:1015B000684601F015FD1D20FFF7E2FE308003E0D4
:1015C00004216878FEF770FD04206040FEBD002015
:1015D000FEBD00000CD2FF1F82D1FF1F81D1FF1F73
:1015E00001490870704700000CD2FF1F10B500F0D1
:1015F00012FF10BD70B50E4C0B46261D07C60546E2
:10160000102200211846FEF731FD012803D11021D8
:10161000A06804F061F8102200212846FEF726FD9C
:10162000012803D11021606804F056F870BD000055
:1016300010F3FF1F38B505460F480C4600784007E9
:1016400001D4122038BD284603F0B2FD002811D085
:101650000A48A9004058002801D0817D00E02146B9
:10166000684604F06FFB064B6A460221284604F0E8
:10167000CFFA38BD142038BD7FD1FF1FE8D1FF1F3E
:1016800039620211272807D2044A914204D0044A41
:10169000400011520020704702207047FFFF0000F9
:1016A0008AD1FF1F70B50E461049154609780229E8
:1016B00016D0012914D0002D14D003F079FD0400B8
:1016C00012D0002E03D0207902210843207110226D
:1016D0002946A018FEF7ACFC28692062002070BDE6
:1016E000122070BD022070BD142070BD7FD1FF1F7D
:1016F000F8B50D4617461D4906461B4A1224C86810
:10170000954208D100282DD00268002A2AD0294607
:101710003046904723E0144A521C954213D10028CA
:1017200007D00268002A04D02946304690470400BA
:1017300005D03946304601F08FF8040012D10B482D
:10174000067047700EE0284603F032FD002809D0ED
:101750000078B04205D139462846FEF7F3FC04462E
:1017600000E003242046F8BDFEFF0000E0D1FF1F8B
:10177000F8B50E46014619481546007805221F4661
:10178000104028D0304326D01548012E1BD0C46805
:10179000002C20D01F2D18D8002D01D0002F14D0E0
:1017A00001701F220021601CFEF75AFC2A463946B0
:1017B000601CFEF73DFC28462570002E07D0611CFA
:1017C000FEF7C6FCF8BD8468E2E70220F8BD611CA4
:1017D000FEF7C4FCF8BD1220F8BD00007FD1FF1F4A
:1017E000F0D1FF1F014610B50020C90704D0034AFD
:1017F0000421034800F0A6F910BD00005066021154
:10180000D8CDFF1F70B50F4D0F4CA8702946183169
:10181000204600F01DF8002128460B461030CA0073
:1018200084521218491C09065360090EF7D0012092
:1018300002F0C6FDA87800F053FB044803F018FD41
:1018400070BD0000B8CDFF1FFFFF0000F93B021183
:1018500070B50A4C0025A04209D1002082008C52AC
:101860005218401CC0B295700228F7D370BD02F028
:1018700092F90028FAD00480857070BDFFFF000047
:10188000F8B50E460746069900240798002902D0AD
:101890000B242046F8BD022B01D00D24F9E7117866
:1018A0005278120289188DB22946814301D08024D2
:1018B000EFE73846F16800F03DF9A842E9D02A4642
:1018C0003846F16800F0C6F90400E2D171892A4671
:1018D000384600F065F9DCE770B50C46080412D50F
:1018E0000A488078FEF7C8FB050008D02878B028A1
:1018F00002D1284602F06CFA2846FEF7C3FB01200D
:10190000C003604070BD002070BD0000B8CDFF1F57
:10191000FFB587B0087A0025109E1C460F46C0060A
:101920000DD5099802F030F9030006D00A22394695
:1019300007989847050035D101E00E2532E0387848
:1019400002281DD17868292201784078120200020D
:10195000081880B2811A90427ED009DC7249401A80
:1019600023D0012821D0022851D0032808D125E016
:10197000012972D0022971D003296DD004296ED0BB
:10198000099802F029F90028D7D00568002DD4D095
:1019900012991198019100903346224639460798D2
:1019A000A847054628460BB0F0BD1198002873D112
:1019B000F868017831800278416897E01198002832
:1019C0006AD101203080F868002100782070788981
:1019D000401C80B200F06CF900280FD031880278EA
:1019E0008918891C3180817A61704189090AA17046
:1019F00002784168E01CFEF71BFBD3E73088042225
:101A0000001D30800021601CFEF72AFBCAE71198F8
:101A1000002872D1F86804A9008800900420308062
:101A2000009820700098000A6070009800F040F95B
:101A3000070028D0F86805906846028A03AB3B4946
:101A4000384600F08DF900280FD13B780221384844
:101A50007A68FEF7C8FE03E027E031E01DE049E0C8
:101A6000002802D13148694688810598007802280B
:101A70000CD1059802224168201DFEF7D9FA308862
:101A8000801C308002E06946009888816846808921
:101A9000A070000AE07085E72FE0119800282CD193
:101AA000F968079800F046F804E01198002824D15E
:101AB000F8680088022131802070000A607071E7A8
:101AC000F868FEF751FB1199C0B2814210D88142EB
:101AD00001D1002206E0129A8918814202D311999D
:101AE000401AC2B23280F96811980918204682E77C
:101AF000072557E71198002801D00B2552E7072149
:101B0000F868318001782170417861708178A17026
:101B10004188090AE1700179217181796171C08878
:101B2000000AA0713EE7000000280000FFFF00004F
:101B3000D266021110B502F02EF8002800D080788D
:101B400010BD00007CB51446050019D0684601950B
:101B5000018000F0CBF903001DD1002C1BD06D8952
:101B6000002D0DD00C20FEF7D5FA00280AD0002356
:101B700003608580094A84609168002904D006E0EA
:101B8000022308E0132306E0906004E011460A688F
:101B9000002AFBD1086018467CBD0000B8CDFF1FAD
:101BA000F8B50C4C0746207815460E46FF280FD096
:101BB0000A20FEF7DFFA01000AD0B12008700020E9
:101BC000487008714F80CE800D812078FEF7B4FAFE
:101BD000F8BD0000B8CDFF1F70B50C46054606499C
:101BE000FFF7A8FF800704D52146284600F0D2F968
:101BF00070BD012070BD0000D0CDFF1F1CB56B462D
:101C00001A71120A5A7100220092022301AA00F0EE
:101C100001F81CBDFFB583B008461F4601A90C9E04
:101C200000F046F8050012D06846808801F0D4FF25
:101C300000280AD04468002C07D000963B4629466D
:101C4000059A0398A04707B0F0BD0E20FBE70120DE
:101C5000F9E7000070B514460E46054601F09BFFFB
:101C6000002806D13146054801F095FF002803D031
:101C700005808470002070BD112070BDFFFF000042
:101C800010B50178B0290BD14178002908D101792C
:101C9000122906D01B2903D14088012100F078FACF
:101CA00010BDFF210231095C0129F5D010BD0000F3
:101CB000F0B58C4610494B6819E09F687C89A042BA
:101CC00014D39E883119814210D900220CE01101F1
:101CD0007D186989814205D16046002800D00480C2
:101CE0002846F0BD521C92B29642F0D81B68002BD9
:101CF000E3D10020F0BD000018D2FF1FFFB5174848
:101D000081B00A9F446824E000251EE0A0682901F4
:101D1000461870890199884215D30299884212D8D1
:101D20000498002807D031787068049B039AFEF766
:101D30005AFD002807D0002F02D0A06840893880C3
:101D4000304605B0F0BD6D1CADB2A088A842DDD80C
:101D50002468002CD8D10020F3E7000018D2FF1F20
:101D6000FEB5174600256A469580044640891D4AFF
:101D70001E46904208D001AA0092401C237880B2EF
:101D80006268FFF7BBFF05462378022116486268A8
:101D9000FEF729FD002807D1237802211348626845
:101DA000FEF721FD002801D060890EE02378022192
:101DB0000F486268FEF717FD00280DD0002D03D0F4
:101DC00068468088B84203D0384602F00DFC04E033
:101DD0006889401E80B200E06089002E00D030800B
:101DE0002846FEBDFFFF0000D0660211D266021138
:101DF000D6660211FFB581B00F461E4614466946ED
:101E0000019801F00FFD050018D1002C06D0012229
:101E10001021019803F0A6F905000FD13946019869
:101E2000FEF776FD050009D1009CFF2E06D0214665
:101E30001E22A31C034802F0E3FBE670284605B00F
:101E4000F0BD0000ED44021110B5054908700421F1
:101E500000F014FA00F006F8FEF764FD10BD000073
:101E600028D2FF1F70B50E4C00200C4B651CFF22C2
:101E70008100C91800280ED00D80401CCA70C0B265
:101E80008A700228F4D3074801F070FE064803F078
:101E9000EFF9002070BD0C80EFE7000020D2FF1F9B
:101EA000FEFF0000194502116D44021170B50C4689
:101EB000080411D509480078FEF7DEF8050007D0C0
:101EC0000178A02901D101F0F5FD2846FEF7DAF8E6
:101ED0000120C003604070BD002070BD28D2FF1FEC
:101EE000014908707047000018D2FF1F70B5054601
:101EF000008800281DD068680221037842682248C3
:101F0000FEF771FC002808D1686802210378426856
:101F10001E48FEF768FC00280BD01D4C6088002886
:101F200005D0012229881204101A814203D9012008
:101F300070BD022070BD0C20FEF7ECF8060001D049
:101F400000200AE0132070BD02016B6861880A322C
:101F50009952491C401C618080B229888142F3D883
:101F60000020306008222946301DFEF761F86068C5
:101F7000002802D1666004E0084601680029FBD110
:101F80000660002070BD0000D0660211D26602110A
:101F900018D2FF1F70B5BEB00D46064600240223BE
:101FA0000E4A0F4901200094FFF7A8FE002812D026
:101FB00040896A46108004205080012010715471BD
:101FC000FF209071D0712B46002269463046FFF702
:101FD00011FF3EB070BD0120FBE70000EE6602116C
:101FE000FFFF00000649496806E08A68528982427C
:101FF00001D18888704709680029F6D10020704710
:1020000018D2FF1F10B51422114201D0012202E0A4
:102010004A0604D50022102103F0A4F810BDC80719
:1020200001D0002010BD022010BD10B514468A0654
:1020300004D50122102103F095F810BD8822114229
:102040000ED008220A40102103F08CF800280BD093
:10205000E034617E0029F0D0217E0129EDD103E03A
:10206000880701D4032010BD002010BD014610B523
:102070000020C90704D0034A07210348FFF762FD87
:1020800010BD00003C660211E0CCFF1F70B50D468C
:10209000164600241D490300FEF70CF8080512340B
:1020A000341934222934152D23D81622002118483A
:1020B000FDF7D6FF2A4631461548FDF7B9FF22E065
:1020C000022D16D111491088103908801BE0082D07
:1020D0000FD10E48082231460838FEF751F812E0B9
:1020E000012D06D1CA6909493078283107E0012D50
:1020F00001D0182407E0CA6B04493078483102F057
:1021000040FB00E00224204670BD0000E0CCFF1F31
:1021100084EBFF1F0B7803700B8802221B0A4370AD
:102120000B88801C012B02D0022B07D011E08A788B
:1021300002704988090A417004220AE08A78027014
:102140004A88120A42700A7982708988090AC17025
:10215000062210467047000008B5044B0093134652
:102160000A46012102F04EFF08BD000015210211B0
:102170001CB50323019200930A46024B122102F080
:1021800071FF1CBD2549021110B5FDF7FFFF10BD01
:1021900013B504480078012803D101AA6946FDF768
:1021A000FBFF1CBD34D2FF1F70B50F490F4A0870EA
:1021B00000210B468C00491CC9B213530429F9D3E2
:1021C0000A4C00211034FF260A460A256A431519D5
:1021D0006B80491CA354C9B26E720329F4D3FDF776
:1021E000E1FF02F0E3FE70BD35D2FF1F2CF3FF1FAD
:1021F000082A01D0012070474B780A781B02D218B8
:102200000280CB788A781B02D21842804B790A79F7
:102210001B02D21882808A79C97909025118C180BB
:102220000020704770B50C46080411D509480078A5
:10223000FDF722FF050007D00178902901D102F0B7
:1022400017FE2846FDF71EFF0120C003604070BD49
:10225000002070BD35D2FF1F70B500280AD1064C92
:1022600000252580A581A580A068002802D0FDF763
:102270009FFFA56070BD0000A8F3FF1F072907D0CE
:10228000052905D0042903D0062901D00220704772
:10229000044A8B009A181346403B1986203A9074E2
:1022A000002070472CF3FF1F70B506001BD10E4CA9
:1022B0000025214640310D744D740D76606D002867
:1022C00002D0FDF775FF65655C2000254643341993
:1022D000E80020184068002801D0FDF769FF6D1C58
:1022E000EDB20A2DF4D370BDB8F3FF1F70B50A88A4
:1022F0000C460546072A07D0052A05D0042A03D034
:10230000062A01D0022070BD012102F0DFFF002863
:1023100004D02146284602F01BFB70BD142070BD7E
:1023200010B5001D80B2FDF749FF002803D003213E
:10233000C943FDF749FF10BD38B50C46050014D060
:10234000002C12D00321684603F0C6F9694688784C
:1023500040218006800E0843694688702246284640
:1023600003F0B0FD050002D006E0022038BD0322D4
:102370006946E01CFDF75CFE284638BDF7B58EB017
:102380000E9815460E4600282DD0002D2BD0301D5E
:10239000C0B20190FDF7BEFE040039D000F09CFBF6
:1023A00007463246201D0E99FDF714FFF8B208903B
:1023B000E0703804000E0B90A0703802000E0A90F6
:1023C00060703F0E277000F081FB0146102202A8CA
:1023D000FDF700FF06AB214602A8019A03F0C8FCF6
:1023E000060003D010E0022011B0F0BD089828705C
:1023F0000B9868700A98A870EF70082206A9281D2B
:10240000FDF7E8FE00F06EFB2046FDF765FE00E0FC
:1024100013263046E8E77CB50C4605001DD0002C9D
:102420001BD00322E11C6846FDF702FE694688784E
:1024300040218006800E08436946887001AA28461C
:1024400003F040FD002807D10322214601A8FDF733
:10245000FBFD012803D001207CBD02207CBD0020B3
:102460007CBD000010B505480078400701D5044840
:1024700000E0002003F0C2F9002010BD7FD1FF1F53
:1024800038D2FF1FFFB58DB00F98169C0E4600285E
:1024900015D0002C13D00D9802F08AFE050011D043
:1024A0006178207809024018A178E27809041206C0
:1024B00089184718286AB84206D3401C04D0022065
:1024C00011B0F0BD1420FBE7002E04D0287980075E
:1024D00001D40120F4E70822002106A8FDF7C0FD81
:1024E0001098001DC0B20190FDF714FE060017D031
:1024F000301D109A0F99FDF76DFE042221463046DB
:10250000FDF768FE1022A91802A8FDF763FE06ABCE
:10251000314602A8019A03F02BFC050002D013E01B
:102520001320CDE7082206A908A8FDF753FE0822CC
:10253000211D08A8FDF788FD012801D0012503E031
:1025400039460D9801F0B6F83046FDF7C5FD28462E
:10255000B6E7000030B55A4C8BB0A07006211F20A2
:10256000FFF790F800206946087201220A730722DB
:102570000A74888208228A8310220A848884FF20B1
:102580002D3008854FA003C8019100900222E11C64
:102590004E48FDF725FE0422611D1003FDF720FEC5
:1025A0004BA0FDF7A5FD0621E01CFDF71FFEE11C79
:1025B000084606221530FDF73BFD2078694608766F
:1025C00006AA01214748FEF7F1FC46486A46062163
:1025D000801CFEF7EBFCC32004AA01218000FEF75B
:1025E000E5FC404802AA0121001FFEF7DFFC3D4840
:1025F00005AA0221C01EFEF7D9FC22466120143232
:102600000F21C000FEF7D2FC3648224623321321A8
:10261000801EFEF7CBFC312003AA01210001FEF74A
:10262000C5FC304807AA02210830FEF7BFFC2D4840
:1026300008AA02210930FEF7B9FC2A4809AA02219A
:102640000A30FEF7B3FCC5200AAA02218000FEF77B
:10265000ADFC2246363215210020FFF717FDFF257D
:10266000913529460620FFF70DF829460720FFF788
:1026700009F829460820FFF705F829460920FFF741
:1026800001F80025ED432846FFF7F0FC2846FFF748
:10269000A9F82846FDF7B0FDF7250120FDF7B2FDAA
:1026A0000120FDF7B5FD2846FEF79AFA0121A07832
:1026B000FDF706FD0CA0FDF71BFD0BB030BD0000C3
:1026C00044CFFF1F01020304050600000440000080
:1026D0006465765F6D61635F646174613A20307830
:1026E00000000000090300003D3D3D3D3D53696D84
:1026F000706C65424C455065726970686572616CBA
:102700005F496E697420446F6E653D3D3D3D3D3DC2
:102710003D0A000038B50C46080415D51A488078E3
:10272000FDF7AAFC05000CD02878912806D168781E
:102730000E2803D1A98815A0FDF7DAFC2846FDF77D
:10274000A1FC0120C0031BE0E0070125002806D002
:102750000D480C30FEF734FD2046684038BDA00718
:1027600008D5684605706A4601211348FEF71EFC2D
:10277000022005E0600705D510A0FDF7B9FC042094
:10278000604038BD002038BD44CFFF1F3D3D3E2096
:102790004843495F434F4D4D414E445F434F4D5079
:1027A0004C4554455F4556454E545F434F44453A6A
:1027B0002025780A00000000050300000A64656116
:1027C0006C2061707020646174617320696E206593
:1027D00076656E74732121210A000000FFB583B075
:1027E0000F4603981B4940001646085AFFF798FD0C
:1027F00004002AD00125601C2670002F03D0069902
:10280000B847401C85B2300610D51021039802F05D
:102810005DFD002801D0192613E06219E9B22046B7
:10282000FFF7ACFD06000CD10C35ADB204216846B3
:1028300001800194058169460398FFF757FD060062
:1028400004D02046FDF7B4FC00E01326304607B064
:10285000F0BD000078D1FF1F10B50C4602F0BCFCA3
:10286000002804D040882146FDF76CFC10BD1220E2
:1028700010BD0022002913D0002811D0012806D055
:102880004A799206920E4A71032805D007E04879EA
:10289000C0221043487102E0402002434A710122E5
:1028A0001046704770B5124800250078052108428F
:1028B0001BD02020FDF72EFC0E4C0028A06013D06A
:1028C00020220021FDF7CCFB2020FDF723FCE06057
:1028D000002804D020220021FDF7C2FB05E0A068FB
:1028E000FDF7FAFB0020A0601325284670BD00000C
:1028F0007FD1FF1FF0D1FF1F70B50A4D064600249F
:102900000E206043401906223146FDF79DFB00284A
:1029100001D0204670BD641CE4B20A2CF0D30A201A
:1029200070BD00000EEFFF1F7FB50C460A280CD2C9
:10293000002C0AD0062148432030C0B26A460E213E
:10294000FDF788FB050003D007E0022004B070BD4E
:10295000062269462046FDF76BFB2846F6E7002174
:102960008A00835A491CDB43835212189378C9B2F8
:10297000DB4393700429F3D37047000010B50F496F
:102980004A79002A01D0012300E000238A78002A36
:1029900000D004221A438B79002B00D00823134364
:1029A000CA79002A00D01022097A1A43002900D0DF
:1029B00020211143FEF73EFE10BD000014CFFF1F83
:1029C000002909D0012807D1497989098901C0293D
:1029D00002D0402901D00220704703207047FFB584
:1029E00000200E4608701AE01C5C401CC5B2002C8A
:1029F00017D02819904214D85F5D6D1CEDB238468F
:102A000000F081FE002806D0641EE0B2307000990C
:102A10008F4202D1581904B0F0BD4019C0B29042A3
:102A2000E2D30020F7E7000010B5044C206800282E
:102A300003D0FDF751FB0020206010BDDCD1FF1F4B
:102A400070B50E4D84002859002815D0006A002862
:102A500001D0FDF741FB2859406A002801D0FDF75D
:102A60003BFB2859806A002801D0FDF735FB285927
:102A7000FDF732FB0020285170BD0000E8D1FF1F98
:102A800010B5044C6068002803D0FDF725FB00203A
:102A9000606010BDE0D1FF1F0100044805D104496A
:102AA0008978002901D00248801D704720F3FF1F5C
:102AB0007ED1FF1F01488078704700007ED1FF1F44
:102AC000014840687047000010F3FF1F014880680C
:102AD0007047000010F3FF1F0148C068006870478E
:102AE00010F3FF1F10B50748C0680168491C01605A
:102AF00005480078FF2803D001218903FDF7E0FA9B
:102B000010BD000010F3FF1F7ED1FF1F0248406878
:102B1000002800D001207047D8D1FF1FFFB581B039
:102B20000F460D9E0A9D039802F042FB040042D01E
:102B3000019800283FD12079102108432071049981
:102B4000490702D50221084301E0FD210840207118
:102B50000B99284608430C9908433043207902D04A
:102B60000421084301E0FB2108402071002E06D01B
:102B70003069102220623146A018FDF759FA002D65
:102B800001D0002F05D00B98002814D0012F08D0B9
:102B900011E0606A002801D0FDF79EFA1C2128464A
:102BA00006E0606A002801D0FDF796FA1C210B9818
:102BB000FDF798FA60620398224C8700E0590028DC
:102BC0003ED0002D0FD0006A002806D11C20FDF752
:102BD000A1FAE1590028086205D0E0591C22006AD8
:102BE0002946FDF725FA0C98002810D0E059406AD4
:102BF000002806D11620FDF78DFAE1590028486219
:102C000005D0E0591622406A0C99FDF711FA002E02
:102C100010D0E059806A002806D11420FDF77AFA16
:102C2000E1590028886205D0E0591422806A3146B3
:102C3000FDF7FEF90B9B049A0399019802F0E8FB5B
:102C400005B0F0BDE8D1FF1FF3B581B0019802F0E7
:102C5000AFFA050029D00E20FDF78CFA040024D02D
:102C60002620FEF78DFB060000D12E78D0202070A4
:102C7000002767700B20A0700622E91DE01CFDF7FD
:102C8000D7F9019860810298C1070120002901D07D
:102C9000207300E027730299890701D5607300E073
:102CA0006773F0B22146FDF747FAFEBD10B5818883
:102CB0001F4B0124CA1A994237D011DC1D4BCA1A86
:102CC000994219D007DC1C4A8A1810D0022A1ED05B
:102CD000032A29D11BE0472A27D0482A24D124E0FF
:102CE0001300FDF7E7F90621222222222221806823
:102CF000007800F0C9FC08E0806882784178120210
:102D0000891889B2007800F01FFD04460DE0094AD9
:102D1000921E914201D1012200E0002280680178D8
:102D2000104600F0F9FC00E00024204610BD000031
:102D3000532000000A200000FADFFFFF70B51A4D93
:102D40001A4A0146002628781268194C01290CD02D
:102D5000002A09D017490978490705D50221FDF74E
:102D6000A3F96680FFF760FE70BD6188002903D07B
:102D7000114B1B78002B05D0002AF5D01078FEF7F8
:102D8000D5FA70BD3C2902D33C39618070BD022167
:102D9000FDF78AF962887D20C0004243022128782D
:102DA000FDF77CF9668070BD0DD2FF1FDCD1FF1FDF
:102DB000F0D1FF1F7FD1FF1F81D1FF1F08B54189CF
:102DC00000910389C2888188C07800F0A9FB08BD02
:102DD000F0B504468088A12189004843304987B076
:102DE00009684018FF30FF300230A1794167002C9C
:102DF00054D02C4D6868002823D006782A480068F3
:102E0000002804D04168002901D0002088472146CD
:102E1000E07908310591FFF7D3FDE0710246277D87
:102E2000638A218AE089019002A88AC0A088009064
:102E3000E0783146059B02F061FBE078002802D083
:102E40000DE01A48D9E7E079E2896B46059907C396
:102E5000A379A1880122304602F058F9E070686831
:102E6000002811D0FFF70CFE287800280CD06978D4
:102E7000FFF7F2FC002807D0E078A2880346297803
:102E800002F069FB00202870A0881721FDF7BEFE24
:102E9000A088FFF7E1F9A088FFF706FA07B0F0BDB8
:102EA0003409FF1FE0D1FF1F10D2FF1F7ED1FF1F8B
:102EB00070B504460026808802F07AF9002803D015
:102EC0000678A08802F0E6F9144D2878002808D08A
:102ED000864206D16978FFF7BFFC002809D00020A0
:102EE0002870002E05D0A379A288A078314602F080
:102EF00032FBA088094A810008325158002901D0CC
:102F0000FFF79EFDA0881721FDF780FEA088FFF740
:102F1000A3F9A088FFF7C8F970BD0000E0D1FF1F3A
:102F200070B58288294D0124531B2949AA4242D0F9
:102F300019DC284D531BAA4218D00BDC264BD218A3
:102F400026D0254B1033D2181ED0032A17D0042ABE
:102F500039D10BE0012B09D0022B07D0032B21D054
:102F6000042B30D11AE0433B072B2CD849680029A9
:102F70002AD00968002927D08847044624E08068C1
:102F8000007800F0ADF81FE0806800F001F9F4E788
:102F90008068411C007800F0D9F8EEE783681B7860
:102FA000002B11D0896800290ED00B6808E001467B
:102FB00010469847E1E709490968002904D04B68A1
:102FC000002BF4D100E00024204670BD0E2000004C
:102FD0000CD2FF1F08200000F7EFFFFFECD1FF1F0E
:102FE00010B5094CA17800290CD001460622A01D7D
:102FF000FDF71EF8A11DA078FFF73BFCA01DFDF713
:103000000DF910BD002010BD7ED1FF1F1CB52F494A
:10301000037801240A68912B02D0A22B2ED13EE026
:103020004178052909D00E2904D00F2908D03E295E
:1030300024D115E0FFF774FF10E0FFF739FF3AE005
:1030400001468088224B0124C31801D0062B15D1DC
:10305000002A30D05268002A2DD0904704462AE03A
:1030600081780124032917D004DC012911D0022919
:1030700004D105E015291ED016291CD000241AE021
:1030800014498968002916D04968002913D0884757
:1030900011E0FFF79DFE0EE0FFF790FE0BE00E49FA
:1030A0000978042909D0002A05D05268002A02D0E4
:1030B00001460A48904720461CBD00216A461180FF
:1030C00001794088FFF748F8F5E70000ECD1FF1FD1
:1030D000F3DFFFFF0CD2FF1F7FD1FF1FFFFF0000B8
:1030E000F8B5164F0646BD1F2878FF2814D00A20D1
:1030F000FDF740F804000FD0D02020706670082043
:10310000A070A878E07006223946201DFCF790FFD9
:1031100021462878FDF710F8E87801280DD10848F5
:103120000068002803D08068002800D08047064847
:10313000044A04210078FCF7F3FFF8BD84D1FF1F97
:1031400010D2FF1F60EA00000DD2FF1F70B50024EF
:103150000546002805D1002903D006220B48FCF7BC
:1031600067FF0A4810380178012907D10124002D92
:1031700006D000210170284600F0AEF9204670BD4F
:1031800002210170FDF750F8F8E7000020F3FF1F5F
:1031900010B50024002813D002780B49002A03D16F
:1031A0004288CA8202790A760A78022A08D102780D
:1031B0000124002A06D000220A70007800F08CF961
:1031C000204610BD0322F7E710F3FF1F01494860B6
:1031D000704700000CD2FF1FF8B57A4C8778014683
:1031E000002507266079A2793B00FCF763FF0805FC
:1031F000361A37375F9ACD36487800285CD1714847
:1032000006223C30C91CFCF713FF0120A0716D4B56
:103210000146423362786079FEF7AAFA00284BD162
:10322000A8E00F464978002946D1F978002906D050
:10323000654BA2780021FEF79BFA78700AE0022A1B
:103240000BD00121FCF742FF002803D10121607956
:10325000FCF736FF787800282ED1F8BD4978002990
:103260002AD1032F09D0A289002A0CD02178002965
:103270000AD00121FCF712FF06E0052A01D0022046
:1032800012E0062010E02570A079062802D004285C
:1032900002D008E0052007E0012020700146607997
:1032A000FCF70EFF66E00320A07163E048780F464C
:1032B000002803D0312832D0A6715BE041480622B5
:1032C000391D3630FCF7B4FE7889E081B889208258
:1032D000F88960820520A071A28A002A03D0022109
:1032E0006079FCF7DBFEB889E083F8892084388AAE
:1032F0006084E07801280AD11F20FEF741F87D2183
:10330000C9004843024604216079FCF7C7FE7A8968
:10331000F8780423391DFDF78DFC25702AE025700F
:10332000C1E728480E46062200213630FCF798FEF9
:10333000E5832584658404216079FCF7B5FE0821C6
:103340006079FCF7B1FEB079082808D00320A0719D
:103350002078002805D06079FDF7E8FF07E0042019
:10336000F5E70120207001466079FCF7A9FE0020F6
:10337000C043E081606A002800D16EE7016800293F
:10338000FBD0A0798847F8BD0D460821FCF78CFEDC
:10339000687829460028F6D1E888E08328892084C7
:1033A0004889608404216079FCF790FE0028EAD106
:1033B000A06A0028E7D00368628C218CE08B9847D4
:1033C000F8BD000054CDFF1F9AEBFF1F10B5017828
:1033D000224C912906D0A22926D0D02901D1FFF76D
:1033E000FBFE10BD41780E29FBD181881C4A914219
:1033F0000FD1816803200856A1790529F1D17F28D2
:10340000EFD0616A0029ECD049680029E9D08847EB
:1034100010BD144A9142FBD18068837842780178CC
:1034200011A0FCF765FE10BD41791329FBD100897D
:10343000012802D12079022808D00520FDF7A0FF3D
:10344000024608216079FCF729FE10BD0821607949
:10345000FCF72AFEFDF7D0FE10BD000054CDFF1F83
:1034600005140000222000005B48434920444C45DD
:103470005D25642025642025640A00007CB5154C78
:103480000546E08BE18A88420AD3218B884207D81F
:10349000208C618B884203D1608CA18B884217D02D
:1034A0000520FDF76DFF0646E18A68460180218B05
:1034B0004180618B8180A18BC18062796946E089FE
:1034C000FEF756FE2571324608216079FCF7E6FDCD
:1034D0007CBD000054CDFF1F70B50F4D0646287807
:1034E000FF2818D00E20FCF745FE040013D0D02092
:1034F000207066700020A07006220849E01CFCF7CE
:1035000097FD06481038C18A6181007E20732146EC
:103510002878FCF711FE70BD7ED1FF1F20F3FF1F3E
:10352000FFB581B01E4617460D460C20FCF722FE63
:10353000040013D0284601F03BFE002810D000788C
:10354000D0212170019961700721A170A580E780C9
:1035500026810A9961812146FCF7EEFD05B0F0BD98
:103560000048ECE77ED1FF1F70B50D4D044628687A
:103570000E46002812D00620FCF7FCFD010009D001
:10358000D02008704C70032088708E8028680078E6
:10359000FCF7D2FD002C01D0FFF746FA70BD000009
:1035A000DCD1FF1FFFB581B01F460E46084601F073
:1035B000FFFD050022D01020FCF7DCFD04001DD02B
:1035C00010220021FCF74CFD2620FDF7D9FE002833
:1035D00000D12878D0212170019961700F21A1704C
:1035E000A6800399217267720A99A1720B99E17200
:1035F0000C99E160C0B22146FCF79EFD05B0F0BD1C
:10360000F0B51F4D85B02868002837D08778FDF7C2
:1036100033FF002805D00A20FDF7B2FE04900B20EE
:103620000EE001F04DF9002805D00620FDF7A8FEB8
:103630000490072004E00820FDF7A2FE0490092072
:10364000FDF79EFE04460F480078002814D001269E
:103650002968C878091DFFF70CF929686D46CA7AF0
:103660008B7A091D0BC5039233463A4621460498CE
:10367000FCF7E0FD05B0F0BD0026E9E70120F9E721
:10368000DCD1FF1F80D1FF1F10B50949096800294F
:103690000CD0002805D101204870FCF72FFD002830
:1036A00002D00021FFF760FF012010BD002010BDF7
:1036B000DCD1FF1FF8B50C4601F07AFD020021D0E5
:1036C00026201462FDF75CFE05062D0E00D115784C
:1036D0009679D01D00901020176AFCF74BFD04006E
:1036E00010D0D0202070002060700920A070E670FB
:1036F0000622201D0099FCF79BFC21462846E76026
:10370000FCF71AFDF8BD411E152903D9FF2801D089
:10371000002070470120704770B50A4E054630788A
:103720000C46FF280DD00420FCF724FD010008D032
:10373000D02008704C7002208870CD703078FCF773
:10374000FBFC70BDF0D1FF1FF3B5284D81B0286898
:1037500000284AD04078264E012803D0307800282F
:1037600031D041E001F0ACF8224F002813D0012005
:10377000FDF706FE0446412808D91F4A0221387881
:10378000FCF7CEFC1D483C3C44800EE07D20C00090
:103790002246424303E00020FDF7F2FD0246002AE4
:1037A00003D002213878FCF779FC296802204870A0
:1037B0003078002802D00020307015E0029901987E
:1037C000FFF7D2FE10E00320019CFCF7D3FC0100C0
:1037D00008D0D02008704C700420887028680078C9
:1037E000FCF7AAFCFFF720F90120FEBDDCD1FF1F8A
:1037F00081D1FF1F0DD2FF1F60EA0000F0D1FF1F33
:10380000074A00218B00D35A834202D188008018D6
:103810007047491CC9B20229F4D300207047000048
:1038200020D2FF1F10B50C46FFF7EAFF00280DD08D
:10383000002C00D020608078FE2803D0FF2803D021
:10384000162010BD172010BD002010BD022010BD95
:10385000FFB581B0FF201E46174605300A9DFCF7D4
:1038600089FC04001BD0B020207067700298608033
:103870002671002D06D02046FC2229460830FCF790
:10388000D7FB05E02046FC2200210830FCF7E8FBCE
:1038900021460198FCF750FC002005B0F0BD132034
:1038A000FBE700000548172202800988172901D28A
:1038B0000420704701800020704700007AD1FF1F6C
:1038C0000020704708B50A460888498888420BD806
:1038D000002809D0002300931379521DFEF70EFA39
:1038E000002803D0002008BD012008BD0A2008BD23
:1038F000F3B50D4608884988002687B0814215D364
:10390000002813D0002769460F71009700236988AB
:103910001A46FEF7F3F904004FD0684600790028F4
:1039200007D069464979012925D008E0012009B06E
:10393000F0BD217802291BD002216A465171122262
:10394000504301AA6189801841806846007912239A
:10395000584380181022001D6168FCF769FB684617
:103960000079401C0106090E684601711FD11AE05A
:1039700001216A465171217802291ED1820001A8D5
:103980006189121851806A46127961689200101894
:103990000222001DFCF74CFB6A461079401CC0B2A5
:1039A0001071052803D261890A48814200D101269D
:1039B0006089401C80B2002EA7D06846007900289C
:1039C00005D001A90798FCF789FF0020AFE70A207E
:1039D000ADE70000FFFF000038B50C4608884988B5
:1039E000884215D8002813D02379621D02210B4884
:1039F000FCF7F9FE00280DD00020009023796188A3
:103A00002088621DFEF77AF9002805D0002038BD15
:103A1000012038BD102038BD0A2038BDD066021103
:103A200008B50A460888498888420BD8002809D07A
:103A3000002300931379521DFEF760F9002803D08C
:103A4000002008BD012008BD0A2008BDF8B50025EA
:103A50000F4606460C46E03717E06800205A002162
:103A6000FEF726F9002809D0017A3046FEF7CAFA97
:103A7000002808D06900615A2180F8BD6800205AEA
:103A800020800120F8BD6D1CEDB2B87DA842E4D8BD
:103A90000020F8BD10B5044608880021FEF708F99B
:103AA000002804D0017A2046FEF7ACFA10BD0120B0
:103AB00010BD000030B585B005466946FCF782FFB1
:103AC000040026D168468078C1071E4809D0826864
:103AD000002A04D0688869469047044619E0062405
:103AE00017E04268002A05D06888694690470400BC
:103AF00001D10EE0062468464078002809D16846C6
:103B0000817801730021C1810474688803A9FCF7DE
:103B1000A5FEA868002801D0FCF74AFB002C05D1BF
:103B200068468078122807D01B2803D068880121B6
:103B3000FEF72EFB05B030BD684640780128F5D170
:103B4000F8E7000028D2FF1F70B505460C4608882C
:103B50000021FEF7ADF8002805D0017A224628465C
:103B6000FEF763FA70BD012070BD00000149486096
:103B70007047000028D2FF1F10B50446801C00F0DB
:103B800046FDFF20E07010BD10B500F025F80028BC
:103B900000D0806810BD00229300CB5A834202D12E
:103BA000900040187047521CD2B2022AF4D3002071
:103BB00070470000074A0021CB00D35A834202D14C
:103BC000C80080187047491C0906090EF4D000206F
:103BD00070470000C8CDFF1F0649896805E08A8844
:103BE000824201D18868704709680029F7D1002016
:103BF00070470000B8CDFF1FF8B50746012906D071
:103C0000022924D1012101F061FB00281FD138468F
:103C1000FFF7D0FF050015D000240D4E0CE0F82072
:103C20006968604308180188002908D0F82200213B
:103C3000FCF716FA641CE4B270788442EFD30020DB
:103C4000C0432880024938461831FDF701FEF8BD0F
:103C5000B8CDFF1FF3B5064683B0083001900020B1
:103C600000907088FFF7A6FF07002FD0002523E003
:103C7000F820796868430C182188002920D0019821
:103C8000007801280FD160880090A3887088A21D59
:103C9000FDF7C0FF0090002805D0019900200870B2
:103CA000049821880180F82200212046FCF7D8F9E9
:103CB00000206D1C2080EDB2074840788542D7D3A4
:103CC0000020C04338800098002802D17088FCF79B
:103CD000EFFD009805B0F0BDB8CDFF1FF3B5054668
:103CE000374C064685B00835F62200212046FCF701
:103CF000B7F903A800902B79698828886A1DFDF719
:103D0000FDFF074645E070882E4A4100515C2E4B6E
:103D1000C91FC9B20093002202910192284B694643
:103D20008A89F63B3946FDF7F3FD002812D1264873
:103D30002989001F828891420CD121492846F639F1
:103D40000A30FCF781F9002804D0217878898900AD
:103D50000919488068468289698804AB3846FDF7AE
:103D6000FFFF07462078810009194A88002A10D0F1
:103D7000002F05D06A46128A401C20708A800AE013
:103D800002060021920DC9431219401C2070918037
:103D900006E0002F04D00D48217800888142B2D37C
:103DA0002078002806D070882146FCF789FD002085
:103DB00007B0F0BD0698298801800A20F8E70000C6
:103DC000C8EDFF1F78D1FF1FBCCDFF1F74D1FF1FAF
:103DD000F0B585B0044600206946888120790E2818
:103DE00069D00FDC082823D004DC022813D0062871
:103DF00018D118E025460835484F0A281DD00C2850
:103E000010D138E010285BD012285ED0162861D07F
:103E1000182877D163E043484149008808806088CA
:103E2000FCF726FD6EE003A92046FFF757FF5AE096
:103E300003A9204600F076F955E0288804A9FDF78B
:103E400037FF010015D06088354E4200BA5C002370
:103E5000521ED2B20193029200966A46B31C128A95
:103E6000FDF756FD00281DD160883146FCF7AEFEF7
:103E700048E0012016E0288804A9FDF719FF010099
:103E8000F7D060886B884200BA5C254E521ED2B2D1
:103E90000193029200966A46B31C128AFDF738FD20
:103EA000002803D029886A4691811CE06088314649
:103EB000FCF75CFE26E003A9204600F0D3F912E0EF
:103EC00003A9204600F082F80DE003A9204600F087
:103ED00039FA08E003A9204600F028F803E003A916
:103EE0002046FFF7B7FE00280CD06178142909D0CE
:103EF0000B4922790A706A4692894A800871608863
:103F0000FCF7ACFC2046FDF7BBFE0748C168002962
:103F100001D02046884705B0F0BD000078D1FF1FD2
:103F2000C8EDFF1F72D1FF1FB8CDFF1FF8B50446C3
:103F30000F460546083400896946FDF7B9FE0600BC
:103F40003AD0307A80060ED568460088FFF71CFE0E
:103F5000030006D06888122231469847060002D036
:103F60002BE00E2629E06E883046FFF723FE010085
:103F700005D11448FFF71EFE01000ED00E80124A34
:103F80000020527807E0F8264B6846439B5B002BE5
:103F900005D0401CC0B29042F5D309260DE0496817
:103FA000F822504308182146FCF742F8002668889A
:103FB0002146FCF7D1FD02E00126208838803046FA
:103FC000F8BD0000FFFF0000B8CDFF1FF3B58BB0B8
:103FD00000200B9E0746039004A800903246337BD6
:103FE000718930894C4C0D320836FDF787FE054645
:103FF00078E00B98297A4088FEF704F8070003D090
:104000000C98698901806FE00B9844494088444BC3
:104010004200895C0093891FC9B20022029101927B
:104020003D4B69460A8AF63B2946FDF771FC0700BD
:10403000E6D10398002833D039486188001F808872
:10404000021D914253D1039909180B9840884200F0
:104050003248805A801F814249DC0399A87A61184E
:10406000087103986989401C80B22218090A401C13
:10407000117180B203906846028A718807AB2846A6
:10408000FDF76EFE050011D003986946898B201854
:10409000017103986946401C898B80B2090A0CE0C3
:1040A0001F48001F8088001D6080D6E70398FF210D
:1040B000201801710398401C80B222181171401C15
:1040C00080B217490390091F8A8813492018F639CE
:1040D000001DFBF7ADFF12490398091F898840189E
:1040E00080B20390002D84D1039800280CD0618801
:1040F0000398FCF7A5F820700B9821464088FCF740
:104100003FFD00200DB0F0BD002F00D10A270C9814
:10411000318801803846F5E7C8EDFF1F78D1FF1FD1
:10412000BCCDFF1FF3B50746044608378BB049489E
:104130000490388800252E4605906AE007A8009074
:104140003B7979887A1D0598FDF7D8FD08900028FD
:1041500052D0408905900898017A6088FDF752FF97
:1041600006005DD160883C494200895C3B4B091FD9
:10417000C9B20093002202910192364B69468A8BA4
:10418000F63B0899FDF7C4FB060049D1002D36D057
:10419000049841883148001F8088801C814241D1A9
:1041A0002E4B1B1F98882918608842002A48805A85
:1041B000001F814220DC0898817A0498401901711F
:1041C00008996D1C4989E8B20A0A049909180A710C
:1041D000401CC5B2194604988A881E494019F63910
:1041E000001DFBF725FF1D481D49001F00792818F9
:1041F000C5B20598884209D1002D13D123E0174894
:104200000499001F8088801C4880C9E7401C80B248
:104210000590608841001048405A001FA8428DDA7E
:10422000002D0ED0049841882846FCF709F8014675
:104230000498017060880499FCF7B0FC00200DB070
:10424000F0BD002E00D10A260C9905980880304652
:10425000F5E70000C8EDFF1F78D1FF1FBCCDFF1FA1
:10426000FFFF0000F3B506460446002085B0324D3E
:1042700000900836288007463046E030049048E039
:104280007800305A03A9FDF713FD01001AD06088A9
:104290002B4B844642002948805C0093401EC0B2EC
:1042A000002202900192244B68468289F63B6046C8
:1042B000FDF72EFB0090002807D07800315A0698B1
:1042C000018035E001200090F7E71D492888091F8B
:1042D0008988421861884B001849C95A4B1E9A4276
:1042E00004DD081A1649091F401E88802988A81C69
:1042F00008181349091F8A880F49F639FBF798FEF9
:104300000F482988001F8088081828807F1C04987F
:10431000FFB2807DB84207D96088298842000748EB
:10432000805A401E8142ABDB60882946FCF744FC82
:10433000009807B0F0BD0000C8EDFF1F78D1FF1F47
:10434000BCCDFF1FF3B5054683B004460835008990
:1043500001A9FDF7ADFC2746E8370646002822D024
:10436000307A80060ED568468088FFF70DFC030082
:1043700006D06088122231469847060002D013E02A
:104380000E2611E0002000906B88298860882A1D85
:10439000FDF740FC060007D1787E002807D1608831
:1043A000FCF740FC03E00126049829880180787E10
:1043B000002802D0002005B0F0BD3046FBE7000029
:1043C000F8B504460246F82042431948002507463E
:1043D000457010377868002807D00020C100C9193F
:1043E000401C00064D60000EF8D0124E00213046F1
:1043F000FBF736FE002001466143C9B2F822514363
:104400008B190B49C200103152180021536005E08E
:10441000F8274F435368491CDD53C9B2A142F7D373
:10442000401C0006000EE6D0014844700020F8BD94
:10443000B8CDFF1FDAEBFF1F7CB50C78069D022C70
:104440000FD14C682678647824023419064EA4B241
:10445000F44206D10224DBB200950194FDF710FA74
:104460007CBD01207CBD0000FED6FFFFF8B50546EF
:104470001D48854223D0461C002921D001292BD07C
:1044800002291CD10121284600F020FF002816D166
:104490002846FFF7B5F9040011D0A078FF280ED008
:1044A000FE2807D000200090E0781E231422294621
:1044B000FFF7CEF92046FFF75FFBFF20A070F8BDA5
:1044C0002846FFF79DF90028F9D13046FFF798F903
:1044D0000028F4D00580F8BD2846FFF791F90400C4
:1044E000F9D02680D9E70000FEFF000038B50400AF
:1044F00010D0A078FF280DD0FE280BD0002000900F
:104500002188E0781E231722FFF7A2F9FE20A07071
:10451000FF20E07038BD0000F3B50C468978C1B0CB
:104520001E2914D02E4D2878FF2829D0182927D8E5
:104530004808C2002B481218803A976F002F1FD0EE
:10454000D06F00281CD02078002817D113E04198A4
:10455000FFF756F905000BD000200090A378E8780B
:1045600000224199FFF774F906462846FFF704FB3D
:10457000304643B0F0BD6278012A03D1122901D040
:104580000620F6E702AE0096A3886178A268B847D5
:104590000028EED1A0784008C100124808188038E1
:1045A000C26F02A94198904700280FD06178002976
:1045B000DFD1A27869460A70087168460189418096
:1045C00069464198FCF74AF90020D2E7A378042B0A
:1045D000CFD00096002228784199FFF739F9C8E733
:1045E00018D2FF1F6C66021100B50346FDF7FAFCF6
:1045F000002803D0C018401E80B200BD184600BD80
:1046000010B57D24E4006243FBF720FE10BD10B519
:10461000040008D02078FF2805D0FE2803D0FBF73F
:104620001BFEFF20207010BDF7B506460F46102078
:10463000FBF770FD05461020FBF76CFD0446002DCE
:104640003AD0002C2DD010220021FBF709FD2A467C
:104650002146304600F0BEFF060023D12878000630
:1046600004D43946284600F043FD08E02146284698
:1046700000F03EFD3A461149204601F0CFFF387860
:10468000000604D43846029900F032FD0AE02146C3
:10469000384600F02DFD09492046029A01F0BEFF80
:1046A00000E013262846FBF717FD002C02D0204619
:1046B000FBF712FD3046FEBD1326F6E7F666021143
:1046C000F8B5069800271D4614460E46002801D06E
:1046D0000B20F8BD30780021022801D019804DE070
:1046E00070680278407800021018152280B25202D9
:1046F000801A0300FBF7DEFC0504121F1A25410097
:10470000F068FBF731FDC2B20798824200D9024639
:104710002A80F1682046FBF78BFC30E0F06802212C
:10472000008829802070000A607028E00620288018
:104730000246F168EEE701202880F06800782070DA
:104740001DE0F068002816D008212980017821702A
:104750000188090A61708178A1704188090AE170B5
:10476000017921718188090A61718179A171C088FB
:10477000000AE07103E0298001E029800127384622
:10478000F8BD10B50B78840702D50224234301E05D
:10479000FD2423400B7003070B7802D50824234324
:1047A00001E0F72423400B7083060B7802D5202408
:1047B000234301E0DF2423400B700A21084201D18A
:1047C000810603D510780C21084304E0002803D1AA
:1047D0001078F3210840107010BD0000FFB581B0C3
:1047E000087800240A9E1F460D4602280FD16868EB
:1047F0000178407800020818152180B24902401A59
:1048000009D0012829D0022848D003283CD001240F
:10481000204605B0F0BDE868FBF7A6FCC0B28642B2
:1048200005D8F0190090152803D90D24F0E70724C6
:10483000EEE7E8683A4680190399FBF7F9FB009820
:10484000EA6880B2002111541C4840680028DFD07B
:1048500001680029DCD0002012E0002E12D1022BCA
:10486000E3D10399E8680A78497809025118018070
:10487000124840680028CBD001680029C8D0012028
:104880008847C5E70B24C3E7002EFBD1062BCCD10C
:104890000622E8680399FBF7CBFBB9E7002EF1D1BC
:1048A000012BC2D103980078002803D0012801D041
:1048B0008024ADE7E9680870AAE70000D0CCFF1FAC
:1048C00008B509488368002B0CD01A786946012086
:1048D0005B1CFEF784F8002804D00078C00701D0E4
:1048E000012008BD002008BDF0D1FF1F10B5034610
:1048F0000B4A00200A21414389184988002905D024
:10490000401CC0B20328F5D3002010BD0A210024AA
:10491000414354540446403488184480037210BD07
:104920003CF3FF1F0A7802700A88120A42708A78E4
:1049300082704A88120AC2700A7902718A88120A41
:1049400042718A798271C988090AC1710820704749
:10495000F8B505460C4648680421FBF735FC217A7A
:10496000017021890346401C090A017021784170B9
:104970002188090A8170207A001DC2B2FB2A36D82C
:104980001C48854215D114461E460C20FBF7F2FB4D
:1049900001000CD090200870022008714D808E60BC
:1049A0001548CC800078FBF7C7FB00271DE01327D4
:1049B0001BE05C2011496843441826464036307E8F
:1049C000002806D008465C30416A0727491C41622E
:1049D0000BE02146284600F095F90746307E002876
:1049E00003D121462846FBF73DFC3846F8BD02209E
:1049F000F8BD0000FEFF000035D2FF1FB8F3FF1F17
:104A000010B50A4A00210A234B439B185C88002CEE
:104A100006D01B79834203D10A204143881810BD78
:104A2000491CC9B20329EED3002010BD3CF3FF1F7F
:104A3000002141800170704770477CB504000FD0A1
:104A4000608800280CD00025009501951323E1888B
:104A5000207A172200F028F8FF2060726580257008
:104A60007CBDF8B5074615460E461020FBF782FBC5
:104A7000040017D0A0202070002060706680002DF8
:104A800005D00C222946201DFBF7D2FA04E00C22A7
:104A90000021201DFBF7E4FA21463846FBF74CFBCA
:104AA0000020F8BD0120F8BDFFB581B01E461746B5
:104AB00014200B9DFBF75EFB04001AD0A22020708F
:104AC0006770029860800A9820716671002D06D088
:104AD00020460C2229460830FBF7AAFA05E02046BA
:104AE0000C2200210830FBF7BBFA21460198FBF7A6
:104AF00023FB05B0F0BD022A1CD34B780A781B02B9
:104B0000D21892B20280012A02D0022A06D00FE007
:104B10008A78C97809025118418009E0CB788A78EF
:104B20001B02D21842800A79497909025118818002
:104B30000020704701207047F8B506464D880020D8
:104B400070600A790C46022A12D02901604800914F
:104B5000415A002906D0009B1F18BB68002B01D0CA
:104B6000012A7DD05A486C304169491C4161A9E055
:104B7000E288042A43D3A068437801781B02C9184D
:104B800089B20091C37881781B02C9188FB2017A6B
:104B9000C079000208184F4948800099091D8A42CF
:104BA00020D1072F13D0052F11D0042F02D0062FAC
:104BB00025D10CE046482901405A002807D0284654
:104BC000FDF74AFB42486C300169491C01610098BD
:104BD000308137800321C943A068FBF7F5FA706084
:104BE0000020F8BD072F18D0052F16D0042F07D0AE
:104BF000062F12D036486C30C168491CC16064E091
:104C000033482901405A002807D02846FDF724FBE5
:104C10002F486C300169491C01612D492D0100208C
:104C200048536E180098B081B7800098FDF778FB64
:104C3000B060002818D00321C943A068FBF7C4FA6C
:104C4000E2880146224F121FB068FBF7F1F9785B4A
:104C5000E1884018001F785338466C30016800E046
:104C600008E0491C016030E019486C308169491C3A
:104C700081612AE0E2888918009A89B28152BA8952
:104C800091421AD80546B868E2884018801AA1688F
:104C9000FBF7CEF90098295AB889814215D13081A5
:104CA000B8883080B8687060009900206852084861
:104CB0006C304168491C416007E005486C308168F0
:104CC000491C81602846FDF7C7FA0120F8BD0000A5
:104CD000A8F3FF1F44D2FF1F022A01D00120704712
:104CE0000A784978090251180180002070470A7833
:104CF00002704A7842708A78C97809025118418056
:104D000070470000FFB50C4607463D49A1208000D2
:104D1000096878434018FF30C130067E89B01546D7
:104D20003846FBF7EFFD001DB04204D23846FBF7D2
:104D3000E9FD001DC6B2B54207D82A460021384613
:104D40000C9BFBF795FA0DB0F0BD31462846FBF7FA
:104D500077FA2746403738740C99616501467143EC
:104D6000691AC9B202910C9904910299002901D0E3
:104D7000401C3874002523E00299002904D0401E0D
:104D8000A84201D1084600E03046E90005910391B0
:104D90006054FDF7F9F903990919486000281BD000
:104DA0000599625C0499FBF743F90598215C049826
:104DB000081804901348C169491C6D1CEDB2C1610B
:104DC000387CA842D8D8606D002803D0FBF7F0F9F2
:104DD000002060650020B6E7002038740646606554
:104DE00006E0F00000194068FBF7E2F9761CF6B225
:104DF000AE42F6D30348C16A491CC1621320A2E740
:104E00003409FF1F14F4FF1FF7B586B016460D4690
:104E10004878FFF7F5FD040010D0002727712878A7
:104E2000012802D0132809D105E06A88314602A87A
:104E3000FFF761FE0AE02078032802D0002009B0C5
:104E4000F0BD6A88314602A8FFF746FF06462046B5
:104E500000F046F902A8019000972B78207A32469C
:104E60000699FFF721FE2046FFF7E2FD3046E6E710
:104E7000FEB50446468801466846FFF75DFE0546D6
:104E8000019800282FD068460088052806D00428FD
:104E900009D0062807D0072805D026E06946304605
:104EA00000F030F821E0810015480818014640392B
:104EB000098E002919D02038807C6A463146FFF7D8
:104EC000D0FD002811D168460088042803D00121B4
:104ED0003046FDF75DF9012D04D1A068002801D00E
:104EE000FBF766F9FEBD012D04D1A068002801D0B2
:104EF000FBF75EF901213046FDF74AF9FEBD0000DF
:104F00002CF3FF1F30B50546088987B00C460428EE
:104F100017D302A86168FFF7EAFE684640891728A0
:104F200037D82189001D81421ED16846007AC10709
:104F300009D0626802A92846121DFFF765FF002804
:104F400012D107B030BD6168091D122805D00020BC
:104F500069460880497A6A4622E06846428903A881
:104F6000FDF746F9002803D02846FFF765FDE8E77E
:104F70000D4881880029E4D06946497A03AA019244
:104F8000009169460B7A807900222946FFF78CFD53
:104F9000D7E701216846018017214180417A6A469E
:104FA0002846FDF7D9F8CCE72CF3FF1F70B5144C59
:104FB00000262680A681A680A0683546002802D05B
:104FC000FBF7F6F8A5600E4C10342046403005740F
:104FD00045740576606D002802D0FBF7E9F8656539
:104FE0005C20002546433419E8002018406800285A
:104FF00001D0FBF7DDF86D1C0A2DF5DB70BD00005C
:10500000A8F3FF1FFFB589B015460E461720129F63
:10501000FDF786F9040021D0684606704570002F20
:1050200003D0201D0C99B84700E000206946488055
:10503000267065704888A070010AE17005226946F3
:105040008A82001D0694888305A90998FFF780FCD1
:10505000050004D02046FBF7ABF800E013252846F6
:105060000DB0F0BDFFB581B01E46054601210A9F77
:105070000B9C00F02BF9002811D02046FFF736FCDE
:1050800000280AD0C5800446077012484178491CA0
:105090000A06120E427004D005E015250FE0142513
:1050A0000DE001224270227100962846039B02996E
:1050B000FFF7A8FF050005D02046FFF7B9FC2846FA
:1050C00005B0F0BD23462146034A09330348FBF7E8
:1050D000BDF8F4E744D2FF1F307500003B4A0211CF
:1050E00010B50446407AFBF7B7F8FF20607210BD98
:1050F00010B500240F22835C5B0023438B54835C38
:10510000521EDC0952B2002AF5DA10BDFFB581B09B
:105110001E4617460D46084600F04AF8002802D001
:10512000112005B0F0BD0E4800F042F8040015D083
:105130000A98A0710622E01D0B99FAF779FF6580A5
:105140002771667101982070002060620C98E081E0
:105150000021284600F048F90020E2E71520E0E7AA
:10516000FFFF000070B514460D46064600F020F81B
:1051700000280BD0416A007900290CD0C20611D555
:1051800080070AD4002C08D0052070BD074886424D
:105190000AD0142070BDC006F6D5887EA84203D27E
:1051A0000C2070BD0F2070BD002070BDFEFF000000
:1051B000084A002128234B439B185B88834203D174
:1051C0002820414388187047491C0906090EF1D070
:1051D000002070475CF3FF1F30B50B4C0B4B0021D8
:1051E00028224A43D5186D88A54206D09A5C82428F
:1051F00003D128204143C81830BD491C0906090EB7
:10520000EED0002030BD0000FFFF00005CF3FF1F68
:1052100010B500200B4C0C4B014628224243D218FB
:105220005480401C117100065162000EF5D0064AF0
:10523000002028328300401CC0B2D1500528F9D389
:1052400010BD0000FFFF00005CF3FF1F0020074AB5
:10525000014628234B439B181B79002B01D0401C8F
:10526000C0B2491C0906090EF3D070475CF3FF1F5A
:10527000074A00218B00D358002B05D0491CC9B226
:105280000529F7D31320704789005050002070473C
:1052900084F3FF1F10B5FFF78BFF040013D0608865
:1052A000012100F0A1F8606A002801D0FAF714FF8C
:1052B000282200212046FAF7D3FE0020C043608058
:1052C0000020207110BD022010BD000010B50C465A
:1052D0000649884206D0FFF76BFF002804D000790A
:1052E000204201D0012010BD002010BDFEFF0000B3
:1052F00070B50446174D0300FAF7DCFE06210418CA
:1053000027291A21134900220520134BC91C861A8C
:105310008E5D9E54521CD2B2062AF8D30FA0FAF723
:10532000E7FE0221A878FAF7CBFE08E00FA004E020
:105330000021A878FAF7A2FF12A0FAF7D9FE6C7044
:10534000214615A0FAF7D4FE70BD17A0F5E71CA002
:10535000F3E7000044CFFF1F6509FF1F476170722C
:105360006F6C655F73746172743A0A0047617072A2
:105370006F6C655F61647665727374696E673A0A13
:1053800000000000476170726F6C655F436F6E6E66
:1053900065637465643A0A005B47415020524F4C84
:1053A000452025645D0A0000476170726F6C655F7F
:1053B000446973636F6E6E656374696F6E3A0A0059
:1053C000476170726F6C655F7761697474696E674D
:1053D0005F61667465725F74696D65726F75743A4A
:1053E0000A00000070470000F8B5084D0E46074659
:1053F0000024A0002A58002A02D03146384690479F
:10540000641CE4B2052CF4D3F8BD000084F3FF1F44
:10541000FFB581B00298FFF7CBFE040069D0029877
:10542000354986008A59002A63D0136A1820002B58
:1054300000D03420936A002B00D01430049B002B42
:1054400000D01C30516A002900D01630FAF792FEC5
:1054500005004ED018220021FAF702FE2620FBF7A5
:105460008FFF070000D12778D0202870019868703E
:105470000A20A8700298A8800398A8711E482C469C
:1054800080591834006A002808D01B49AC6089593B
:1054900020461C34096A1C22FAF7CAFD16488059B6
:1054A000806A002808D01449EC60895920461434D9
:1054B000896A1422FAF7BCFD0498002806D02C61F2
:1054C00020461C341C220499FAF7B2FD0A4881597F
:1054D000496A002906D06C6180591622416A20462B
:1054E000FAF7A6FDF8B22946FAF726FE0298FDF76C
:1054F000A7FA05B0F0BD0000E8D1FF1FFFB581B0ED
:105500001D46174614200E9EFAF734FE040020D0E4
:10551000D0202070019860700520A070E770002DE9
:1055200005D006222946201DFAF782FD04E0062256
:105530000021201DFAF794FD0A9860810B98A08144
:105540000C98E0810D982082A67421460298FAF703
:10555000F3FD05B0F0BDF8B506461C4615460F46EE
:105560000820FAF707FE010009D0D02008704E701D
:10557000062088708D808C713846FAF7DDFDF8BD05
:10558000007841078207C90F920F89000006C00EFC
:105590001143C0000843704701468A0008491020A3
:1055A000895800290AD00A6A002A07D08968002988
:1055B00004D0107A097E884200D308467047000064
:1055C00048D2FF1F10B50246014620321031FAF7CB
:1055D0005BFE10BD10B5FAF757FE10BD7FB50D4646
:1055E000044681000948405800280ED00146683121
:1055F0004EC903966E460EC6037FC28801782846C0
:10560000FDF78CFA204600F003F87FBD48D2FF1F5B
:1056100070B5044600F07CFBA500134C60590028CF
:1056200021D0006A002801D0FAF756FD6059806E3B
:10563000002801D0FAF750FD6059C06E002801D053
:10564000FAF74AFD6059006F002801D0FAF744FDCF
:105650006059406F002801D0FAF73EFD6059FAF713
:105660003BFD0020605170BD48D2FF1F7FB5084D43
:1056700084002959102268462531FAF7D9FC2859A7
:10568000044BC0886A46112100F0C2FA04B070BD14
:1056900048D2FF1F556102117FB50C4C850061593E
:1056A000002910D0694600F0D7FA60590178C08807
:1056B000002901D0064B00E0064B6A46072100F0A6
:1056C000A7FA04B070BD0120FBE7000048D2FF1F1D
:1056D000996102112B62021170B50D460646002435
:1056E0000AE0FAF7D7FD010A3155641CE4B2AC4276
:1056F00002D23055641CE4B2AC42F2D370BD00005B
:105700007FB5084D84002959102268463531FAF7D3
:105710008FFC2859044BC0886A46112100F078FAA2
:1057200004B070BD48D2FF1F7761021170B50E4CF6
:10573000064685006059002813D0007821460028CD
:1057400010D08868002804D04168002901D0304674
:10575000884760594078122803D100213046FFF76E
:105760003DFF70BD4868EDE748D2FF1F10B50A46FF
:10577000024B112100F04CFA10BD0000BD60021177
:105780001CB5044668461346017006221946401CA3
:10579000FAF74EFC034B6A460821204600F038FA1F
:1057A0001CBD0000DF60021110B50A46024B11213A
:1057B00000F02EFA10BD00000561021110B586B090
:1057C000044668461346018008221946801CFAF7F1
:1057D0002FFC044B6A460B21204600F019FA06B054
:1057E00010BD00002761021110B50A46024B1121BD
:1057F00000F00EFA10BD0000576202110149486026
:105800007047000048D2FF1FF7B588B0164604461F
:10581000102200216846FAF723FC334DA700E8590F
:10582000002835D0C188A14232D1017800292FD17A
:105830004278062A0FD0816E002929D0088A112AC1
:1058400019D0B04224D1082212310998FAF7FCFB92
:1058500001283CD01CE0024601465532353104ABEC
:105860000C3000F0FEFB002812D12046FFF794FE1A
:10587000024604A930E0B04206D10822123109984C
:10588000FAF7E2FB01281BD032212046FFF7A6FEE3
:105890002046FFF78DFC05000CD0696A002909D06D
:1058A000088AB04206D1082212310998FAF7CCFBD7
:1058B00001280FD02046FAF7F3FC01200BB0F0BD11
:1058C0002046FFF769FEE9590246896E04E0E8596F
:1058D000816E00E0696A8A7E6846FAF7A9FB204675
:1058E0006946FAF7E3FCE8E748D2FF1FF1B582B05A
:1058F0000298694C850060590178002976D1417879
:105900008768066A062907D0CA1F1300FAF7D2FB78
:10591000050A48525B1872007969CA0706D0327BC3
:10592000D20703D0806E002813D019E0880702D573
:10593000307B80073ED4480764D5307B400761D573
:10594000FDF7C4F86159CA8801461046FFF74CFFBD
:1059500058E01C20FAF7DEFB61590028886653D016
:1059600060591022866E00213046FAF779FB0298C2
:10597000FFF712FE01463046FFF7AEFEFAF78AFC4B
:105980003082304608211230FFF7A6FE0298FFF75A
:1059900003FEB07660593146C088FFF7E7FE33E07A
:1059A000816E002932D00A461232098AC088FFF778
:1059B00005FF2BE0FDF784F86159CA8801461046BF
:1059C000FFF7F2FE3FE001200190FDF773F8009031
:1059D00001280CD0002000900198FDF75DF80246E8
:1059E00060590099C088FFF7CBFE39E023E0002022
:1059F0000190F2E7072907D0082907D0092922D00A
:105A00000A292DD078690EE008201DE07869810709
:105A100004D5317B890701D5092015E0410721D440
:105A200001E00B2010E0C10520D5B189C9051DD5C5
:105A30000C2061594870FEBD40051ED5B089400557
:105A40001BD51020F5E70A20615948706059C088BD
:105A5000FFF7AEFB002812D0C08941080A1810E0F9
:105A60007869DBE7317B4907DDD5DAE78105E3D5E6
:105A7000B1898905E0D50E20DBE71220D9E7FF22A6
:105A8000F5320649029808540298635909180448E7
:105A90001B1DFAF7DBFBFEBD48D2FF1F98F3FF1F6B
:105AA000055D0211F8B50446002000900E46102056
:105AB000FAF730FB544AA5005159002808625159A1
:105AC00078D017468C6810223146FAF7B1FA785927
:105AD0000178002962D1026A6069177B2146C307F9
